:020000040800F2
:10000000A8040020010100089F13000883120008C3
:100010009D130008FD050008D7150008000000002A
:100020000000000000000000000000003114000883
:10003000FF05000800000000C11300083314000889
:100040001B0100081B0100081B0100081B01000820
:100050001B0100081B0100081B0100081B01000810
:10006000010600081B0100081B0100081B01000815
:100070001B0100081B0100081B0100081B010008F0
:100080001B0100081B0100081B0100081B010008E0
:100090001B0100081B0100081B0100081B010008D0
:1000A0001B0100081B0100081B0100081B010008C0
:1000B000F51400081B0100081B0100081B010008C3
:1000C0001B0100081B0100081B0100081B010008A0
:1000D0001B0100081B0100081B0100081B01000890
:1000E0001B0100081B0100081B010008DFF80CD0F1
:1000F00000F072FA00480047F9150008A804002033
:100100000648804706480047FEE7FEE7FEE7FEE7B1
:10011000FEE7FEE7FEE7FEE7FEE7FEE7AD140008B8
:10012000ED000008202A04DB203A21FA02F0002129
:10013000704721FA02F3D040C2F1200291400843F7
:100140001946704730B480EA010202F0004530F0F1
:10015000004221F0004013D090B1C30DD40DC2F382
:100160001601C0F31600E41A41F4000140F4000245
:100170007D34914201D3641C00E04900002C02DA76
:1001800030BC002070474FF400000023914201D39F
:10019000891A034340084FEA4101F7D151B1914216
:1001A00002D14FF0004105E002D24FF0010101E021
:1001B0006FF0010103EBC450284430BC00F003B9D8
:1001C0002DE9FE4F804681EA0300C00F0C460090E7
:1001D00021F0004123F00045B8EB0200A94105D20F
:1001E0004046214690461C460B46024623F00040FE
:1001F000104347D0270DC7F30A00C3F30A510290FA
:10020000401A019040286BDAC3F3130040F4801BBE
:100210000098924620B10023D2EB030A63EB0B0B4C
:1002200001985946C0F14002504600F0ABF806462E
:100230000D4650465946019A00F0B3F810EB0800FD
:100240006141002487EA115284EAE7731A4340D0DF
:10025000009A62B3019A012A4FEA075215DC001B8B
:1002600061EB02014FF0004202EA0752CDE9004281
:10027000001C41F5801132462B4600F0EAF803B02D
:10028000BDE8F08F40462146F9E7001B61EB020113
:10029000001C41F5801300185B412018A2F50017DF
:1002A00047EB030140EAD570B6196D4111E06D08C6
:1002B0004FEA360645EAC0754FEA0752001B61EB6C
:1002C0000201001C41F5801149084FEA3000001975
:1002D000514132462B4603B0BDE8F04F00F0AAB8BA
:1002E0000098012240000023D0EB020263EBE07390
:1002F000009821464FEAE074B8EB000061EB04017E
:10030000E9E783F000435BE781F0004158E7C10F64
:1003100080EAE0700844CA079623002100F05CB828
:1003200070B5C1F30A5201F000450024C1F3130176
:1003300040F2FF3341F480119A4201DA002070BD8F
:1003400040F233439A42A2F2334203DC5242FFF7B7
:10035000E9FE00E090402C43F1D0404270BD00F037
:10036000004230F000400AD0C10D01F56071C0F3C9
:10037000160042EA0151C2084007114370470020AD
:1003800001467047202A04DB203A00FA02F10020DF
:1003900070479140C2F1200320FA03F319439040C3
:1003A0007047202A06DBCB17203A41FA02F043EAD5
:1003B000E07306E041FA02F3D040C2F1200291401E
:1003C0000843194670470029A8BF7047401C4900E0
:1003D00008BF20F00100704710B4B0FA80FC00FAAA
:1003E0000CF050EA010404BF10BC704749B1CCF1D5
:1003F000200421FA04F411FA0CF118BF0121214361
:100400000843A3EB0C01CB1D4FEA00614FEA10201B
:1004100042BF002010BC704700EBC35010440029BD
:10042000A4BF10BC7047401C490008BF20F0010069
:1004300010BC704710B5141E73F1000408DA401C9C
:1004400041F1000192185B411A4301D120F00100F3
:1004500010BD2DE9F04D92469B4611B1B1FA81F2E3
:1004600002E0B0FA80F220329046FFF78BFF04469C
:100470000F4640EA0A0041EA0B0153465A46084338
:1004800013D0114653EA010019D0C8F1400250467A
:10049000FFF748FE05460E46504659464246FFF7CE
:1004A00071FF084305D0012004E020463946BDE82D
:1004B000F08D0020054346EAE0762C4337430A9846
:1004C0006305E40AA0EB08000022FD0A44EA475451
:1004D0000A3002D500200146E9E7010510196941FB
:1004E000DDE9084500196941BDE8F04DA2E70000CB
:1004F0002DE9F041054621F000400C46284309D083
:10050000C4F30A5040F23341884205DD28462146B3
:10051000BDE8F0812846FBE740F2FE31884210DC5E
:100520000CDB4FEA043040EA155050EA053105D0A3
:10053000104804F0004101430020E9E70020014693
:10054000E6E7A0F233404642C6F140022846214683
:10055000FFF718FF07468846284621463246FFF730
:10056000E1FD43463A46FFF765FF3246BDE8F041FC
:10057000FFF708BF0000F03F30B5041E71F1000422
:1005800004DB4FF00044404264EB0101141E73F1A0
:10059000000405DB1C464FF00043524263EB0403AA
:1005A0008B4208BF824230BD30B5041E71F1000499
:1005B00004DB4FF00044404264EB0101141E73F170
:1005C000000405DB1C464FF00043524263EB04037A
:1005D000994208BF904230BD064C074D06E0E068E6
:1005E00040F0010394E8070098471034AC42F6D37A
:1005F000FFF780FDA0170008C0170008FEE770474E
:1006000010B5082000F09AF900F0DCFE042000F09C
:1006100019F8BDE81040082000F09BB970B50446F9
:1006200000F004F90546601C02D004480078044438
:1006300000F0FCF8401BA042FAD370BD540000202B
:1006400070470000044910B50A68024202D00860F1
:10065000FFF7F6FF10BD0000140401402DE9F84F2C
:10066000DFF890A100220AF1040B144601274FF095
:100670000F090BF1040E00BF0B6807FA04F52B40BD
:10068000AB4274D1DFF870C14E68A6EB0C0866452A
:100690002BD00DDC032E34D005DC36B3012E19D05F
:1006A000022E2FD11BE0112E16D0122E2AD119E0C6
:1006B000B8F5881F19D006DCB8F5803F15D0B8F51D
:1006C000801F1FD111E0B8F5001F0ED0B8F5041F30
:1006D00018D10AE0CA6815E0CA68121D12E0CA689B
:1006E00008320FE0CA680C320CE08A682AB1012A8D
:1006F0004FF0080203D0456104E0042202E00561E6
:1007000000E00022FF2B01D8064601E000F10406BC
:100710004FEA840501D9A5F12005D6F800C009FAF1
:1007200005F82CEA080C02FA05F54CEA050CC6F8A7
:1007300000C04D68ED0057D5304DAE6946F001065A
:10074000AE61AD6924F0030605F0010500952C4D5E
:1007500006EB050CDCF80850A6074FEA167809FAF4
:1007600008F6B543274EB04202D1002610E03BE028
:10077000254EB04201D101260AE0244EB04201D1FB
:10078000022605E0224EB04201D1032600E00426F5
:1007900006FA08F62E43CCF808604D68DAF80060D7
:1007A000ED03554601D51E4300E09E432E604D6883
:1007B000DBF80060AD035D4601D51E4300E09E43BB
:1007C0002E604D68DEF80060ED02754601D51E43CF
:1007D00000E09E432E604D68AD020E4D2E6801D59F
:1007E0001E4300E09E432E60641C102CFFF444AFB7
:1007F000BDE8F88F00040140000011100010024015
:100800000000014000080140000C014000100140C0
:10081000001401400C0401408068084000D0012011
:1008200070470AB1016170470904FBE7014880681D
:10083000704700005400002002488168027811448B
:100840008160704754000020074810B5016841F0EE
:1008500010010160032000F0A7F8002000F006F866
:1008600000F024F8002010BD0020024070B50D4DAE
:1008700004464FF47A712878B1FBF0F00A49096810
:10088000B1FBF0F000F017FB48B9102C07D20022A2
:100890002146501E00F068F800206C6070BD0120F9
:1008A00070BD00005400002060000020214808B501
:1008B000816941F001018161816901F001010091CB
:1008C000C16941F08051C161C06900F08050009061
:1008D000032000F069F8002211466FF00B0000F0D1
:1008E00043F8002211466FF00A0000F03DF80022A4
:1008F00011466FF0090000F037F800221146501F32
:1009000000F032F800221146101F00F02DF80022EE
:100910001146901E00F028F800221146501E00F0EB
:1009200023F80548416821F0E06141F00071416021
:1009300008BD0000001002400000014000F01F024E
:10094000012191404009800000F1E020C0F88011B1
:10095000704700F01F02012191404009800000F122
:10096000E020C0F800117047F0B40E4B1B680C4635
:10097000C3F30223C3F10705042D00D90425191D73
:10098000072901D2002300E0DB1E012606FA05F14B
:10099000491E214099409E40761E16403143F0BCCE
:1009A00000F0FEBC0CED00E0064900F0070208680C
:1009B0004FF6FF03184040EA0220034A1043086044
:1009C000704700000CED00E00000FA052DE9F0474B
:1009D000DFF83C8105460E46D8F8000000F007001D
:1009E000B0420CD2D8F8001021F007013143C8F80A
:1009F0000010D8F8000000F00700B04263D128785A
:100A0000444C800705D56068A96820F0F0000843D1
:100A100060602878C00745D06868012816D0216832
:100A2000022816D0890700294DDA616821F00301F8
:100A300001436160FFF7FAFE6968074641F28830BA
:100A400001290FD00229814619D027E021688903A6
:100A5000E9E78901E7E700BFFFF7E8FEC11B494569
:100A600001D918E081466068C0F381000128F3D104
:100A700018E000BFFFF7DAFEC11B49450BD86068DC
:100A8000C0F381000228F5D10CE000BFFFF7CEFED5
:100A9000C11B494502D90320BDE8F087606810F00A
:100AA0000C0FF3D1D8F80010404601F00701B14215
:100AB0000BD9016821F0070131430160006800F0A3
:100AC0000700B04201D00120E6E72878400705D5AD
:100AD0006068E96820F4E0600843606028780007F7
:100AE00006D56068296920F4605040EAC100606062
:100AF00000F01CF86168084AC1F30311515CC8405A
:100B0000064908600020FFF7B1FE0020C4E700009E
:100B100000200240001002409017000860000020F2
:100B200001480068704700006000002012A185B0F5
:100B30000FC98DE80F0014A0144A00680490516892
:100B4000134801F00C03042B10D0082B0ED1C1F375
:100B50008343C9031DF803000AD5516804AAC1F3F1
:100B60004041515C0A4A5043B0FBF1F005B0704778
:100B700008494843FAE7000002030405060708098C
:100B80000A0B0C0D0E0F10100102000000100240A5
:100B900000127A0000093D002DE9F84F0446007864
:100BA000B94DC00748D06868C0F38100012807D05C
:100BB0006868C0F38100022809D16868C00306D5BF
:100BC0002868800338D5606800286FD034E06068FA
:100BD000B0F5803F0BD010B1B0F5A02F11D0286830
:100BE00020F480302860286820F4802002E0286803
:100BF00040F480302860606888B1FFF717FE064631
:100C000009E0286840F480202860F0E7FFF70EFE36
:100C1000801B642875D828688003F7D50CE0FFF79F
:100C200005FE064605E000BFFFF700FE801B6428B6
:100C3000F0D828688003F7D42078944E80074FF0CE
:100C400001094FF000083BD5686810F00C0F07D081
:100C50006868C0F38100022809D16868C00306D41F
:100C60002868800714D5206901281FD110E0206969
:100C7000B0B1C6F80090FFF7D9FD074605E000BF08
:100C8000FFF7D4FDC01B0228C4D828688007F7D519
:100C90002868616920F0F80040EAC10028600FE090
:100CA000C6F80080FFF7C2FD074606E0E9E000BF96
:100CB000FFF7BCFDC01B022823D828688007F7D4A3
:100CC000207800072CD57248A169D9B1C0F80090EE
:100CD000FFF7ACFD074604E0FFF7A8FDC01B0228A4
:100CE0000FD8686A8007F7D56A484FF4FA51006850
:100CF000B0FBF1F0009000BF0098411E0091FAD2C5
:100D00000EE080E0C0F80080FFF790FD074604E0A9
:100D1000FFF78CFDC01B022875D8686A8007F7D4DE
:100D20002078400760D5E8690027C00008D4E8694A
:100D300040F08050E861E869012700F080500090A1
:100D400055480168C90513D40168834641F4807190
:100D50000160FFF76BFD824606E000BFFFF766FD0E
:100D6000A0EB0A0064284ED8DBF80000C005F5D5DA
:100D7000E06801280AD008B1052813D0286A20F0BD
:100D800001002862286A20F0040002E0286A40F08E
:100D900001002862E06841F2883B98B1FFF746FD08
:100DA00082460BE0286A40F004002862EEE700BFAC
:100DB000FFF73CFDA0EB0A0159455AD8286A800785
:100DC000F6D50CE0FFF732FD824605E0FFF72EFD79
:100DD000A0EB0A0159454CD8286A8007F6D41FB108
:100DE000E86920F08050E861E06988B36968C1F380
:100DF0008101022945D00228C6F8608004D0FFF79F
:100E000015FD044638E034E0FFF710FD074604E026
:100E1000FFF70CFDC01B02282BD828688001F7D4EF
:100E2000206AB0F5803F05D16868A16820F40030E1
:100E300008436860D4E908010843696821F4741123
:100E400008436860C6F86090FFF7F0FC044606E0CF
:100E500015E000BFFFF7EAFC001B022809D828684C
:100E60008001F7D50BE000BFFFF7E0FC001B022874
:100E700002D90320BDE8F88F28688001F4D400204F
:100E8000F8E70120F6E700000010024000004242AF
:100E90008004424260000020007000404FF0E021DA
:100EA0000428086903D020F004000861704740F06E
:100EB0000400FAE7704710B5401EB0F1807F01D3FF
:100EC000012010BD4FF0E02460610F21601700F099
:100ED00067FA0020A06107202061002010BD10B536
:100EE000FFF7E8FF10BD7047704730B590F83C2021
:100EF000012A20D0012280F83C20022380F83D30D6
:100F000003685C6824F070045C6003685C680D68CA
:100F10002C435C6003689C6824F080049C60036838
:100F20009C6849680C439C6080F83D20002180F853
:100F30003C10084630BD022030BD10B5040003D07F
:100F400094F83D0010B107E0012010BD002084F8A6
:100F50003C00204600F00CF8022084F83D00211DE2
:100F6000206800F0CDFA012084F83D00002010BD7B
:100F700008B50068B0F1804F12D10A48C16941F04C
:100F80000101C161C069002200F00100009001214F
:100F90001C20FFF7E9FCBDE808401C20FFF7D9BC86
:100FA00008BD0000001002400168CA6842F001025A
:100FB000CA600068016841F00101016000207047CB
:100FC00070B5044690F83C00012817D0012584F83C
:100FD0003C50022084F83D002068826822F07702AD
:100FE00022F47F4282600868502837D00DDC202828
:100FF00059D005DC88B3102841D151E0022070BDE2
:10100000302853D040283AD13FE060282ED07028B5
:101010000BD0B0F5805F03D0B0F5005F2FD110E0AA
:101020002068816821F0070115E0CB68D1E9012132
:10103000206800F09BFA2168886840F0770088609B
:101040001DE0CB68D1E90121206800F08FFA20680B
:10105000816841F48041816011E01EE0CA684968FE
:10106000206800F095FA5021206806E0CA684968B7
:10107000206800F09EFA6021206800F081FA84F870
:101080003D50002084F83C0070BDCA684968206863
:1010900000F07EFA40212068EFE700212068ECE7AD
:1010A00010212068E9E720212068E6E73021206848
:1010B000E3E7704770B50446006801694FF000052A
:1010C000C943890715D4C168C943890711D4E91EEA
:1010D000016101202077206880698007204602D0C6
:1010E000FFF7E7FF04E000F098F8204600F096F8DC
:1010F000257720680169C943490717D4C168C943E6
:10110000490713D46FF004010161022020772068A1
:10111000806910F4407F204602D0FFF7CAFF04E048
:1011200000F07BF8204600F079F825772068016907
:10113000C943090716D4C168C943090712D46FF01F
:1011400008010161042020772068C06980072046DB
:1011500002D0FFF7AEFF04E000F05FF8204600F099
:101160005DF8257720680169C943C90617D4C168AD
:10117000C943C90613D46FF010010161082020771C
:101180002068C06910F4407F204602D0FFF791FF2D
:1011900004E000F042F8204600F040F8257720688F
:1011A0000169C943C90708D1C168C943C90704D146
:1011B000891E0161204600F033F820680169C943A7
:1011C000090609D4C168C943090605D46FF0800136
:1011D00001612046FFF787FE20680169C94349067F
:1011E00009D4C168C943490605D46FF040010161C3
:1011F000204600F045F820680169C94389060BD4F0
:10120000C168C943890607D46FF0200101612046F7
:10121000BDE87040FFF768BE70BD704770470000C2
:1012200010B50068B0F1804F24D1134C13484FF42F
:101230000071A26BE263236C9A4207D1626C0A2AA6
:1012400001DA521C62640A2A0ED001E000226264B4
:101250005FF00102FFF7E5FAE06B2064606B0028A5
:1012600008DD012802D003E00022F3E7012121621A
:10127000401E606310BD00000C000020000C014007
:101280007047FEE770B50B4D002202212846FFF79C
:10129000C8FA0024012202212846FFF7C2FA0022E0
:1012A00002212846FFF7BDFA641CE4B2192CF1D3E1
:1012B00070BD0000000C014030B5204885B0816948
:1012C00041F020018161816901F02001049181696F
:1012D00041F008018161816901F00801049181698F
:1012E00041F0040181618069154D00F0040040F275
:1012F00002240490012221462846FFF792FA012099
:10130000CDE9004000200290032003906946284662
:10131000FFF7A4F9042000900A48019002200290EF
:1013200069462846FFF79AF9002211460820FFF780
:101330001BFB0820FFF70DFB05B030BD001002407D
:10134000000C01400000211010B5134886B04FF08A
:101350008041016041F2BF210024C0E9011440F244
:10136000E731C0E903148461FFF7E7FD00B1FEE750
:101370004FF48050009069460748FFF721FE00B106
:10138000FEE7049404A904480594FFF7AEFD002885
:1013900000D0FEE706B010BD64000020FEE77047F5
:1013A0000907090E002806DA00F00F0000F1E0201E
:1013B00080F8141D704700F1E02080F80014704799
:1013C000704700002DE9F041174F0024224602210A
:1013D0003846FFF726FA154DA868401C0026A8607D
:1013E000012202213846FFF71CFA64000022022184
:1013F0003846FFF716FA04213846FFF70DFA00B118
:10140000641C761CF6B2192EEAD36010B0F5000FFA
:1014100001DB80F07F40C117286000EB11700011E4
:101420006860BDE8F0810000000C01400000002071
:10143000704710B5FFF700FABDE81040FFF74FBD49
:1014400030B58FB001210804CDE9001000240294CA
:1014500002250491CDE90750000109906846FFF785
:101460009BFB00B1FEE70F20CDE90A054FF4806039
:10147000CDE90C404FF4A0600E9001210AA8FFF7BF
:10148000A5FA00B1FEE7FFF74BFB4FF47A71B0FB12
:10149000F1F0FFF710FD0420FFF700FD00221146D8
:1014A000501EFFF761FA0FB030BD00000D48016813
:1014B00041F00101016041680B4A1140416001683F
:1014C0000A4A11400160016821F4802101604168ED
:1014D00021F4FE0141604FF41F0181600449C00303
:1014E00008607047001002400000FFF8FFFFF6FEA2
:1014F00008ED00E00148FFF7DDBD000064000020BA
:10150000F0B50268164B174C174D4FF080479842C4
:1015100005D0B84203D0A04201D0A84203D122F0A6
:1015200070064A683243984205D0B84203D0A042C0
:1015300001D0A84203D122F44074CA68224322F0A9
:1015400080044A69224302608A68C2620A68826231
:10155000984201D10969016301214161F0BD000098
:10156000002C0140000400400008004010B58468D1
:1015700042EA032224F47F440A432243826010BDDE
:10158000826822F070020A4342F0070181607047CE
:1015900010B5036A046A24F001040462846924F02B
:1015A000F00444EA021423F00A020A43846102624E
:1015B00010BD10B5036A23F0100303628369046A47
:1015C00023F4704343EA023224F0A00343EA0111FA
:1015D0008261016210BDFEE702E008C8121F08C167
:1015E000002AFAD170477047002001E001C1121FA4
:1015F000002AFBD170470000FFF726F9FFF720FF14
:10160000FFF75AFEFFF7A0FE3948FFF7CDFC082090
:10161000FFF794F9FFF736FE0820FFF79AF9354FE8
:10162000354C00250A20FEF7F9FF38682060E16894
:10163000024600296168A1F10A0321D09A4202DB27
:101640000A31884201DDA560E560216900F10A02E6
:10165000914202DC143A914201DA01462061E369C9
:10166000A1F11402934209DB14318B4206DC216B99
:10167000491C21630A2912DB2061E06125630EE029
:101680009A420BDB0A31884208DCA168491CA16040
:101690000A2904DB0121C4E9031000E0A5606060B1
:1016A000206A10B12069C4E90705606A68B1A06AC0
:1016B000FEF72DFE0646E1692069401AFEF727FE77
:1016C0003146FEF73FFD6562E062E1692069401A3C
:1016D000A061FEF71CFEE16AFEF734FD6061FEF7D3
:1016E0003EFE00F00BF8FEF71BFEA0639AE7000039
:1016F00064000020040000200C0000202DE9F04DC3
:1017000007460E46FEF7F4FE04460D463A463346BB
:10171000FEF7FAFDDFF86CA0DFF86CB01B4B074654
:10172000884616F0004F4FF000020AD0FEF724FF63
:101730000AD900225B4638464146FEF735FF1BD2E8
:1017400012E0FEF719FF08D2002253462046294630
:10175000FEF7D7FD04460D460EE000225B463846F4
:101760004146FEF721FF07D800225346204629466E
:10177000FEF726FD04460D463146204665F31E0160
:10178000BDE8F08D0000F03F0000E03F0000E0BF4A
:101790000000000000000000010203040607080921
:1017A000C01700080000002064000000D8150008E1
:1017B000241800086400002044040000E815000814
:1017C0000000000000000000000000000000000019
:1017D0000000000000000000000000000000000009
:1017E00000000000000000000000000000000000F9
:1017F00000000000000000000000803F000000002A
:101800001E000000000000000000000000000000BA
:1018100000000000010000001000000000000000B7
:0418200000A24A04D4
:04000005080000ED02
:00000001FF
